:020000040000FA
:0600000053EF00F01200B6
:020006000000F8
:08000800060EF66E000EF76E05
:10001000000EF86E00010900F5509A6F0900F550C6
:100020009B6F03E19A6701D03DD00900F550956FB1
:100030000900F550966F0900F550976F0900090007
:10004000F550E96E0900F550EA6E09000900090053
:10005000F550986F0900F550996F09000900F6CF27
:100060009CF0F7CF9DF0F8CF9EF095C0F6FF96C0BC
:10007000F7FF97C0F8FF0001985302E1995307E09A
:100080000900F550EE6E9807F8E29907F9D79CC081
:10009000F6FF9DC0F7FF9EC0F8FF00019A07000E13
:0600A0009B5BBFD71200BC
:0A00A60015EE00F025EE00F0F86AF8
:1000B000019C04EC00F076EC00F061EC00F0FBD762
:0200C00012002C
:0E00C2000001020E8E6F8E0E916F000E926F77
:0E00D000030E8F6F8E518F25906FFFD7120099
:0200DE0000EE32
:0C00E00000F00F0EEE6AEA62FDD712007D
:0200EC00120000
:00000001FF
